{
  "contractName": "DiceGame",
  "abi": [
    {
      "inputs": [
        {
          "internalType": "address",
          "name": "randomMachineAddress",
          "type": "address"
        }
      ],
      "stateMutability": "nonpayable",
      "type": "constructor"
    },
    {
      "anonymous": false,
      "inputs": [
        {
          "indexed": true,
          "internalType": "address",
          "name": "oldOwner",
          "type": "address"
        },
        {
          "indexed": true,
          "internalType": "address",
          "name": "newOwner",
          "type": "address"
        }
      ],
      "name": "OwnerSet",
      "type": "event"
    },
    {
      "inputs": [
        {
          "internalType": "address",
          "name": "newOwner",
          "type": "address"
        }
      ],
      "name": "changeOwner",
      "outputs": [],
      "stateMutability": "nonpayable",
      "type": "function"
    },
    {
      "inputs": [],
      "name": "getOwner",
      "outputs": [
        {
          "internalType": "address",
          "name": "",
          "type": "address"
        }
      ],
      "stateMutability": "view",
      "type": "function",
      "constant": true
    },
    {
      "inputs": [],
      "name": "getNonce",
      "outputs": [
        {
          "internalType": "uint256",
          "name": "",
          "type": "uint256"
        }
      ],
      "stateMutability": "view",
      "type": "function",
      "constant": true
    },
    {
      "inputs": [
        {
          "internalType": "uint256",
          "name": "max",
          "type": "uint256"
        }
      ],
      "name": "getRandomNumber",
      "outputs": [
        {
          "internalType": "uint256",
          "name": "",
          "type": "uint256"
        }
      ],
      "stateMutability": "nonpayable",
      "type": "function"
    }
  ],
  "bytecode": "0x608060405234801561001057600080fd5b5060405161048a38038061048a83398101604081905261002f91610098565b600080546001600160a01b0319163390811782556040519091907f342827c97908e5e2f71151c08502a66d44b6f758e3ac2f1de95f02eb95f0a735908290a3600280546001600160a01b0319166001600160a01b039290921691909117905560006001556100c8565b6000602082840312156100aa57600080fd5b81516001600160a01b03811681146100c157600080fd5b9392505050565b6103b3806100d76000396000f3fe608060405234801561001057600080fd5b506004361061004c5760003560e01c8063893d20e814610051578063a6f9dae114610071578063b37217a414610086578063d087d288146100a7575b600080fd5b6000546040516001600160a01b0390911681526020015b60405180910390f35b61008461007f366004610283565b6100af565b005b6100996100943660046102b3565b61013d565b604051908152602001610068565b610099610251565b6000546001600160a01b031633146100e25760405162461bcd60e51b81526004016100d9906102cc565b60405180910390fd5b600080546040516001600160a01b03808516939216917f342827c97908e5e2f71151c08502a66d44b6f758e3ac2f1de95f02eb95f0a73591a3600080546001600160a01b0319166001600160a01b0392909216919091179055565b600080824433600154600260009054906101000a90046001600160a01b03166001600160a01b0316630b747d916040518163ffffffff1660e01b8152600401602060405180830381865afa158015610199573d6000803e3d6000fd5b505050506040513d601f19601f820116820180604052508101906101bd91906102f9565b6040516020016101f3949392919093845260609290921b6001600160601b03191660208401526034830152605482015260740190565b6040516020818303038152906040528051906020012060001c6102169190610312565b61022190600161034a565b60018054919250600061023383610362565b9190505550620f4240600154111561024b5760006001555b92915050565b600080546001600160a01b0316331461027c5760405162461bcd60e51b81526004016100d9906102cc565b5060015490565b60006020828403121561029557600080fd5b81356001600160a01b03811681146102ac57600080fd5b9392505050565b6000602082840312156102c557600080fd5b5035919050565b60208082526013908201527221b0b63632b91034b9903737ba1037bbb732b960691b604082015260600190565b60006020828403121561030b57600080fd5b5051919050565b60008261032f57634e487b7160e01b600052601260045260246000fd5b500690565b634e487b7160e01b600052601160045260246000fd5b6000821982111561035d5761035d610334565b500190565b600060001982141561037657610376610334565b506001019056fea264697066735822122080bb73b9256ed7e0adbe24e1f79d4809ffada4f3f438b50863f8d6e91557ecff64736f6c634300080b0033",
  "immutableReferences": {},
  "source": "// SPDX-License-Identifier: GPL-3.0\n\npragma solidity >=0.7.0 <0.9.0;\n\ncontract RandomMachine{\n\n    address private owner;\n    uint public randomSeed;\n\n    // event for EVM logging\n    event OwnerSet(address indexed oldOwner, address indexed newOwner);\n        // modifier to check if caller is owner\n    modifier isOwner() {\n        require(msg.sender == owner, \"Caller is not owner\");\n        _;\n    }\n    \n    constructor(){\n        owner = msg.sender;\n        emit OwnerSet(address(0), owner);\n    }\n\n    function changeSeed(uint _randomSeed) external{\n        require(msg.sender == owner);\n        randomSeed = _randomSeed;\n    }\n}\ncontract DiceGame {\n\n    address private owner;\n    uint256 nonce;\n    RandomMachine randomMachine; // for feeding external seed outside blockchain\n    \n    // event for EVM logging\n    event OwnerSet(address indexed oldOwner, address indexed newOwner);\n    \n    // modifier to check if caller is owner\n    modifier isOwner() {\n        require(msg.sender == owner, \"Caller is not owner\");\n        _;\n    }\n    \n    /**\n     * @dev Set contract deployer as owner\n     */\n    constructor(address randomMachineAddress) {\n        owner = msg.sender; // 'msg.sender' is sender of current call, contract deployer for a constructor\n        emit OwnerSet(address(0), owner);\n\n        // init external randomMachine\n        randomMachine = RandomMachine(randomMachineAddress);\n        nonce = 0;\n    }\n\n    /**\n     * @dev Change owner\n     * @param newOwner address of new owner\n     */\n    function changeOwner(address newOwner) public isOwner {\n        emit OwnerSet(owner, newOwner);\n        owner = newOwner;\n    }\n\n    /**\n     * @dev Return owner address \n     * @return address of owner\n     */\n    function getOwner() external view returns (address) {\n        return owner;\n    }\n\n    function getNonce() external view isOwner returns (uint){\n        return nonce;\n    } \n\n    function getRandomNumber(uint max) external returns (uint){\n        uint randomNumber = uint(\n            keccak256(\n                abi.encodePacked(\n                    block.difficulty,\n                    msg.sender,\n                    nonce,\n                    randomMachine.randomSeed()\n                )\n            )\n        ) % max + 1;\n        nonce ++;\n        if(nonce > 1000000){\n            nonce = 0;\n        }\n        return randomNumber;\n    }\n\n}",
  "sourcePath": "/home/jacky/project/DiceGame/contracts/DiceGame.sol",
  "compiler": {
    "name": "solc",
    "version": "0.8.11+commit.d7f03943.Emscripten.clang"
  },
  "schemaVersion": "3.4.4",
  "updatedAt": "2021-12-20T17:29:52.281Z",
  "networkType": "ethereum",
  "devdoc": {
    "kind": "dev",
    "methods": {
      "changeOwner(address)": {
        "details": "Change owner",
        "params": {
          "newOwner": "address of new owner"
        }
      },
      "constructor": {
        "details": "Set contract deployer as owner"
      },
      "getOwner()": {
        "details": "Return owner address ",
        "returns": {
          "_0": "address of owner"
        }
      }
    },
    "version": 1
  },
  "userdoc": {
    "kind": "user",
    "methods": {},
    "version": 1
  }
}