{
  "contractName": "RandomMachine",
  "abi": [
    {
      "inputs": [],
      "stateMutability": "nonpayable",
      "type": "constructor"
    },
    {
      "anonymous": false,
      "inputs": [
        {
          "indexed": true,
          "internalType": "address",
          "name": "oldOwner",
          "type": "address"
        },
        {
          "indexed": true,
          "internalType": "address",
          "name": "newOwner",
          "type": "address"
        }
      ],
      "name": "OwnerSet",
      "type": "event"
    },
    {
      "inputs": [],
      "name": "randomSeed",
      "outputs": [
        {
          "internalType": "uint256",
          "name": "",
          "type": "uint256"
        }
      ],
      "stateMutability": "view",
      "type": "function",
      "constant": true
    },
    {
      "inputs": [
        {
          "internalType": "uint256",
          "name": "_randomSeed",
          "type": "uint256"
        }
      ],
      "name": "changeSeed",
      "outputs": [],
      "stateMutability": "nonpayable",
      "type": "function"
    }
  ],
  "bytecode": "0x608060405234801561001057600080fd5b50600080546001600160a01b0319163390811782556040519091907f342827c97908e5e2f71151c08502a66d44b6f758e3ac2f1de95f02eb95f0a735908290a360cb8061005e6000396000f3fe6080604052348015600f57600080fd5b506004361060325760003560e01c80630b747d91146037578063396f12c8146051575b600080fd5b603f60015481565b60405190815260200160405180910390f35b6060605c366004607d565b6062565b005b6000546001600160a01b03163314607857600080fd5b600155565b600060208284031215608e57600080fd5b503591905056fea2646970667358221220f3a9c84418487b9f80d132fd0cdb02363d42ef5a5debcdf790466aff8b29543964736f6c634300080b0033",
  "immutableReferences": {},
  "source": "// SPDX-License-Identifier: GPL-3.0\n\npragma solidity >=0.7.0 <0.9.0;\n\ncontract RandomMachine{\n\n    address private owner;\n    uint public randomSeed;\n\n    // event for EVM logging\n    event OwnerSet(address indexed oldOwner, address indexed newOwner);\n        // modifier to check if caller is owner\n    modifier isOwner() {\n        require(msg.sender == owner, \"Caller is not owner\");\n        _;\n    }\n    \n    constructor(){\n        owner = msg.sender;\n        emit OwnerSet(address(0), owner);\n    }\n\n    function changeSeed(uint _randomSeed) external{\n        require(msg.sender == owner);\n        randomSeed = _randomSeed;\n    }\n}\ncontract DiceGame {\n\n    address private owner;\n    uint256 nonce;\n    RandomMachine randomMachine; // for feeding external seed outside blockchain\n    \n    // event for EVM logging\n    event OwnerSet(address indexed oldOwner, address indexed newOwner);\n    \n    // modifier to check if caller is owner\n    modifier isOwner() {\n        require(msg.sender == owner, \"Caller is not owner\");\n        _;\n    }\n    \n    /**\n     * @dev Set contract deployer as owner\n     */\n    constructor(address randomMachineAddress) {\n        owner = msg.sender; // 'msg.sender' is sender of current call, contract deployer for a constructor\n        emit OwnerSet(address(0), owner);\n\n        // init external randomMachine\n        randomMachine = RandomMachine(randomMachineAddress);\n        nonce = 0;\n    }\n\n    /**\n     * @dev Change owner\n     * @param newOwner address of new owner\n     */\n    function changeOwner(address newOwner) public isOwner {\n        emit OwnerSet(owner, newOwner);\n        owner = newOwner;\n    }\n\n    /**\n     * @dev Return owner address \n     * @return address of owner\n     */\n    function getOwner() external view returns (address) {\n        return owner;\n    }\n\n    function getNonce() external view isOwner returns (uint){\n        return nonce;\n    } \n\n    function getRandomNumber(uint max) external returns (uint){\n        uint randomNumber = uint(\n            keccak256(\n                abi.encodePacked(\n                    block.difficulty,\n                    msg.sender,\n                    nonce,\n                    randomMachine.randomSeed()\n                )\n            )\n        ) % max + 1;\n        nonce ++;\n        if(nonce > 1000000){\n            nonce = 0;\n        }\n        return randomNumber;\n    }\n\n}",
  "sourcePath": "/home/jacky/project/DiceGame/contracts/DiceGame.sol",
  "compiler": {
    "name": "solc",
    "version": "0.8.11+commit.d7f03943.Emscripten.clang"
  },
  "schemaVersion": "3.4.4",
  "updatedAt": "2021-12-20T17:29:52.278Z",
  "networkType": "ethereum",
  "devdoc": {
    "kind": "dev",
    "methods": {},
    "version": 1
  },
  "userdoc": {
    "kind": "user",
    "methods": {},
    "version": 1
  }
}